:020000040800F2
:1000000000A0002089010008D5010008D5010008E2
:10001000D5010008D5010008D50100080000000046
:10002000000000000000000000000000D5010008F2
:10003000D501000800000000D5010008D501000826
:10004000D5010008D5010008D5010008D501000838
:10005000D5010008D5010008D5010008D501000828
:10006000D5010008D5010008D5010008D501000818
:10007000D5010008D5010008D5010008D501000808
:10008000D5010008D5010008D5010008D5010008F8
:10009000D5010008D5010008D5010008D5010008E8
:1000A000D5010008D5010008D5010008D5010008D8
:1000B000D5010008D5010008D5010008D5010008C8
:1000C000D5010008D5010008D5010008D5010008B8
:1000D000D5010008D5010008D5010008D5010008A8
:1000E000D5010008D5010008D5010008D501000898
:1000F000D5010008D5010008D5010008D501000888
:10010000000000000000000000000000D501000811
:10011000D5010008D5010008D5010008D501000867
:10012000D5010008D5010008D5010008D501000857
:10013000D5010008D5010008000000000000000003
:10014000D5010008D5010008D50100080000000015
:10015000000000000000000000000000000000009F
:100160000000000000000000D5010008D5010008D3
:10017000D5010008000000000000000000000000A1
:0801800000000000D501000899
:100188000C488546002103E00B4B5B584350043173
:100198000A480B4B42189A42F6D30A4A02E0002357
:1001A80042F8043B084B9A42F9D300F011F800F0EA
:1001B8000EF8FEE700A0002048020008000000201A
:1001C800000000200000002000000020FEE7FEE7FD
:1001D8001549D1F8883043F47003C1F88830134BBF
:1001E8001A6842F001021A605868114A02405A60BF
:1001F8001A6822F0847222F480321A601A6822F493
:1002080080221A605A6822F4FE025A60DA6A22F0E2
:100218000F02DA62186B074A02401A6300229A60DA
:100228004FF000638B60704700ED00E00010024063
:080238000CC07FF8CCFC00FFB4
:0802400096FFFF7F01000000A2
:0400000508000000EF
:00000001FF
